:104000005542200135D0085A82450011314000390F
:104010003F4000000F9308249242001120012F839B
:104020009F4FB6470011F8233F4000000F9307242D
:104030009242001120011F83CF430011F923315018
:10404000F4FF32C203430343B012D641B240805A58
:104050002001F24087FF5700F240E0FF5600F2D007
:1040600080FF1E00F2D010001E00F2D080FF1D0065
:10407000F24017007000F2D0A2FF7100E24374001A
:10408000C2437500F2D040000400F2F0FEFF700061
:10409000C24302003F43B01282433F43B012824307
:1040A0003F43B01282433F43B01282435F42280035
:1040B0004F930D38B012D641B0121A424E437F4092
:1040C0000700B0127A45B140F800000022D1B2409A
:1040D0003002A001B2400002A201F2409BFF80002A
:1040E000A2D3A00192D3A00192B3A401FD27B2F004
:1040F000FDFFA0018243A0011F4240013F90670ED7
:104100000C2C5F43B012D045B012B045B0121A4229
:10411000B240085A2001B012004AB01248424F93F0
:1041200003243E40F010023C3E4070103D400A0027
:104130000F412F53B012BA465F4108005F53C14F81
:1041400008006F930E287F400700B012D0450E4341
:104150003F400F00B012DE436F93142082432001D2
:10416000113C0F412F53B0122046C19309000A2081
:104170001E4104001F410600B012DE436F9302206F
:1041800082432001B012B045F1430800D143090039
:104190000F412F53B0122046B0121A42B240085AB3
:1041A0002001B012004A32D0F000FD3F3040B44749
:1041B000F2D010001D0030415F427600C24377000C
:1041C0005F4202003FF04000FB27F2F0BFFF020019
:1041D0005F4276003041F2400E001B00F240E0FFEB
:1041E0002200C2432100F2407B002A00F24010006E
:1041F0002900F240F1FF1A00C2431900F240FDFF0E
:104200001E00F240DDFF1D00F2433200F243310098
:10421000F2433600C24335003041F2F0EFFF1D009B
:10422000F240B9FF77005F4271001FF3FC27F2D024
:1042300010001D00C2430400D2437000D24371003D
:10424000C24372004F4330415F427F105E42FF1015
:104250007F9309247E9309244F8E4F4F4F5F0F4366
:104260000F6F4F4F30415F4330414F4330410B128E
:104270000A12F2F0EFFF1D007D400500F240ABFF97
:1042800077005C4202004C93FC37F2F07F000200A2
:104290007D53F423F2D010001D00F2F0EFFF1D005B
:1042A0000ED33FD000033B4018000C4E0D4F4A4B3D
:1042B0007AF01F004A93052412C30D100C107A5394
:1042C000F93FC24C77005D4202004D93FC37F2F09B
:1042D0007F0002003B823B90F8FFE7233A413B41DD
:1042E00030410B120A12091208120A4C0B4D1841E8
:1042F0000A00B0126E42B012B841494F8910B01294
:10430000B8414F4F09DFB012B0410E4A0F4BB01207
:104310006E420B43103CB012B8414F4F8F100BEF61
:104320007F420B9304340B5B3BE02110013C0B5BA1
:104330007F53F72338530893EE23B012B0415F4305
:10434000099B01244F43384139413A413B413041B7
:104350000B120A123B4018000A43B012B8414E4FEC
:104360004D4B7DF00F004D9303240E5E7D53FB3FBC
:104370000ADE3B823B90F8FFF0230F4A3A413B4173
:104380003041013C3F530F93FD2330414F4F2FB33A
:1043900005245E4231007EF0DFFF043C5E423100C6
:1043A0007ED02000C24E31002FB205245E42310083
:1043B0007EF0BFFF043C5E4231007ED04000C24E22
:1043C00031001FF305245F4231007FF0EFFF043C12
:1043D0005F4231007FD01000C24F310030410B12DC
:1043E0000A1209120812071206120512041231509D
:1043F000FEFD0A4E0B4F30120A000C4E0D4F3E5080
:104400000A000F63B012E24221534F939C240E4ADC
:104410000F4B3E520F63B0126E42B012B841C14F03
:104420000102B012B0415E4101027E537E90FEFF58
:104430008A2C064A074B365080000763044A054B16
:1044400034508001056308440945C143000230121D
:1044500050040C480D490E460F47B012E24221535A
:104460004F937124D15300022653076338505004F0
:104470000963D19101020002EA23713CB012B041FC
:10448000623C3A5088010B63B012B041583C094875
:104490008910494912C309100E4A0F4BB0126E42DF
:1044A000B012B8410E483EF0FF010E51CE4F000051
:1044B0003753042418531A530B63093CB01250436A
:1044C000084FB0125043074F3A5009000B630E4893
:1044D0008E104E4E12C30E10099E02200793E02349
:1044E000B012B0414F49B0128C4349498910095963
:1044F000B24084A52A01B24000A52C01B24002A519
:10450000280189430000B24040A528010E493E50D1
:1045100000020D410D893990FEFF05240F490F5D02
:10452000A94F0000033CB940004000002953099EF8
:10453000F223B24000A52801B24010A52C01079338
:10454000A6234F43013C5F433150020234413541C1
:1045500036413741384139413A413B4130410E44BF
:104560000F45B0126E42B0125043084FB012504384
:10457000074F3890004A8223843F0B120A12091217
:10458000494F4A4E3B4000064F49B0128C430F4BF7
:10459000B01282434F4AB0128C433F4000060F8B4B
:1045A000B01282432B82F02339413A413B413041E2
:1045B0007E4003007F400700B0127A455E437F4093
:1045C0000300B0127A454E435F43B0127A45304142
:1045D0000B120A124A4F7B4003004F4AB0128C4321
:1045E0003F43B01282433F43B01282433F43B01275
:1045F00082433F43B01282434F43B0128C433F4348
:10460000B01282433F43B01282433F43B012824311
:104610003F43B01282437B53E0233A413B41304158
:104620000B120A1209120812094FB01248424F9396
:1046300007203A40F0103C4000103D408010063CFE
:104640003C4080103D4000103A407010B24084A5BC
:104650002A01B24000A52C01B24002A52801CD4399
:104660000000B24040A528010E4D0B43084A3850C7
:104670000A000E9A02280E9804280F4C0F5B6F4F09
:10468000013C7F49CE4F00001B531E533B907F00DF
:10469000F0235F4C7F005F537F9301204F43CD4F4A
:1046A0007F00B24000A52801B24010A52C014F4365
:1046B000384139413A413B4130410B120A1209124B
:1046C000081207120D9370240F9E6E24342C0C4E8A
:1046D0000CDF1CF31B240C4E0CEF1CF307202D9356
:1046E00007280B4E1BF32C430C8B033C0C4D013C59
:1046F0001C430D8C0A4C094E0B4FFB4900001B5309
:104700003A53FB230A4F0A5C0E5C013C0A4F0B4DE7
:1047100012C30B100B24094B084E0C4ABC48000076
:104720002C533953FB230B5B0E5B0A5B1DF33C24BC
:10473000EA4E0000393C0E5D0C4F0C5D0B4C0BDE5D
:104740001BF31B240B4C0BEE1BF306203D900300C8
:1047500003280B4E1BF3013C0B4D0D8B094E0A4CED
:10476000084B088C3A533953EA490000074A075866
:10477000F9233BE31B530C5B0E5B0B4D12C30B1079
:104780000E240A4B084E094C28832983A9480000AF
:104790003A53FA230A8B0B4A0B5B0E5B0C5B1DF33F
:1047A0000324DC4EFFFFFFFF3741384139413A41D6
:0647B0003B413041001303
:0400000300004000B9
:00000001FF
